{
  "contractName": "PhoneNumberReport",
  "abi": [
    {
      "anonymous": false,
      "inputs": [
        {
          "indexed": false,
          "internalType": "string",
          "name": "phoneNumber",
          "type": "string"
        },
        {
          "indexed": false,
          "internalType": "int256",
          "name": "count",
          "type": "int256"
        }
      ],
      "name": "PhoneNumberReported",
      "type": "event"
    },
    {
      "inputs": [
        {
          "internalType": "string",
          "name": "phoneNumber",
          "type": "string"
        }
      ],
      "name": "reportNumber",
      "outputs": [],
      "stateMutability": "nonpayable",
      "type": "function"
    },
    {
      "inputs": [
        {
          "internalType": "string",
          "name": "phoneNumber",
          "type": "string"
        }
      ],
      "name": "checkReports",
      "outputs": [
        {
          "internalType": "int256",
          "name": "",
          "type": "int256"
        }
      ],
      "stateMutability": "view",
      "type": "function",
      "constant": true
    }
  ],
  "bytecode": "0x608060405234801561001057600080fd5b50610522806100206000396000f3fe608060405234801561001057600080fd5b50600436106100365760003560e01c806385556f911461003b578063911e904e1461006b575b600080fd5b610055600480360381019061005091906102a1565b610087565b6040516100629190610303565b60405180910390f35b610085600480360381019061008091906102a1565b6100b1565b005b600080826040516100989190610398565b9081526020016040518091039020600001549050919050565b60016000826040516100c39190610398565b908152602001604051809103902060000160008282546100e391906103de565b925050819055507fc46aa8ae8d7178a76af2501d0c47d7ce3f8ef2c4f8023b31247c04c7ef02d5c28160008360405161011c9190610398565b90815260200160405180910390206000015460405161013c9291906104bc565b60405180910390a150565b6000604051905090565b600080fd5b600080fd5b600080fd5b600080fd5b6000601f19601f8301169050919050565b7f4e487b7100000000000000000000000000000000000000000000000000000000600052604160045260246000fd5b6101ae82610165565b810181811067ffffffffffffffff821117156101cd576101cc610176565b5b80604052505050565b60006101e0610147565b90506101ec82826101a5565b919050565b600067ffffffffffffffff82111561020c5761020b610176565b5b61021582610165565b9050602081019050919050565b82818337600083830152505050565b600061024461023f846101f1565b6101d6565b9050828152602081018484840111156102605761025f610160565b5b61026b848285610222565b509392505050565b600082601f8301126102885761028761015b565b5b8135610298848260208601610231565b91505092915050565b6000602082840312156102b7576102b6610151565b5b600082013567ffffffffffffffff8111156102d5576102d4610156565b5b6102e184828501610273565b91505092915050565b6000819050919050565b6102fd816102ea565b82525050565b600060208201905061031860008301846102f4565b92915050565b600081519050919050565b600081905092915050565b60005b83811015610352578082015181840152602081019050610337565b83811115610361576000848401525b50505050565b60006103728261031e565b61037c8185610329565b935061038c818560208601610334565b80840191505092915050565b60006103a48284610367565b915081905092915050565b7f4e487b7100000000000000000000000000000000000000000000000000000000600052601160045260246000fd5b60006103e9826102ea565b91506103f4836102ea565b9250817f7fffffffffffffffffffffffffffffffffffffffffffffffffffffffffffffff0383136000831215161561042f5761042e6103af565b5b817f8000000000000000000000000000000000000000000000000000000000000000038312600083121615610467576104666103af565b5b828201905092915050565b600082825260208201905092915050565b600061048e8261031e565b6104988185610472565b93506104a8818560208601610334565b6104b181610165565b840191505092915050565b600060408201905081810360008301526104d68185610483565b90506104e560208301846102f4565b939250505056fea2646970667358221220974d2885339b2e933c1c28dcc4dd2b46b47a60dfff19a7fcfdcb2f75038a48d864736f6c634300080d0033",
  "immutableReferences": {},
  "source": "// SPDX-License-Identifier: GPL-3.0\npragma solidity ^0.8.0;\n\n/// @title Phone Number Reporting System\ncontract PhoneNumberReport {\n\n    struct PhoneReport {\n        int count; // number of times reported\n    }\n\n    // Mapping from phone number (as a string) to its report details.\n    mapping(string => PhoneReport) private reports;\n\n    // Event declaration for a phone number report\n    event PhoneNumberReported(string phoneNumber, int count);\n\n    /// Report a phone number.\n    function reportNumber(string memory phoneNumber) public {\n        // Increment the report count for the given phone number.\n        reports[phoneNumber].count += 1;\n\n        // Emit an event whenever a phone number is reported.\n        emit PhoneNumberReported(phoneNumber, reports[phoneNumber].count);\n    }\n\n    /// Check how many times a phone number has been reported.\n    /// Returns the number of times the phone number has been reported.\n    function checkReports(string memory phoneNumber) public view returns (int) {\n        return reports[phoneNumber].count;\n    }\n}",
  "sourcePath": "C:\\Users\\Ali\\source\\repos\\TestBlock\\contracts\\PhoneNumberReport.sol",
  "compiler": {
    "name": "solc",
    "version": "0.8.13+commit.abaa5c0e.Emscripten.clang"
  },
  "schemaVersion": "3.4.16",
  "updatedAt": "2024-01-13T11:37:39.097Z",
  "networkType": "ethereum",
  "devdoc": {
    "kind": "dev",
    "methods": {},
    "title": "Phone Number Reporting System",
    "version": 1
  },
  "userdoc": {
    "kind": "user",
    "methods": {
      "checkReports(string)": {
        "notice": "Check how many times a phone number has been reported. Returns the number of times the phone number has been reported."
      },
      "reportNumber(string)": {
        "notice": "Report a phone number."
      }
    },
    "version": 1
  }
}